{
  "contractName": "ConvertLib",
  "abi": [
    {
      "constant": false,
      "inputs": [
        {
          "name": "amount",
          "type": "uint256"
        },
        {
          "name": "conversionRate",
          "type": "uint256"
        }
      ],
      "name": "convert",
      "outputs": [
        {
          "name": "convertedAmount",
          "type": "uint256"
        }
      ],
      "payable": false,
      "type": "function"
    }
  ],
  "bytecode": "0x60606040523415600e57600080fd5b5b60908061001d6000396000f300606060405263ffffffff7c010000000000000000000000000000000000000000000000000000000060003504166396e4ee3d8114603c575b600080fd5b6048600435602435605a565b60405190815260200160405180910390f35b8181025b929150505600a165627a7a7230582096833ddfd0c0e576b89ddeb0ebf95862d33ad00afd98d4d1a6ee5ef81dfad76e0029",
  "source": "pragma solidity ^0.4.4;\n\nlibrary ConvertLib{\n\tfunction convert(uint amount,uint conversionRate) returns (uint convertedAmount)\n\t{\n\t\treturn amount * conversionRate;\n\t}\n}\n",
  "sourcePath": "/Users/albert/ethereum/conference_app/contracts/ConvertLib.sol",
  "schemaVersion": "1.0.0",
  "updatedAt": "2017-10-21T18:18:17.404Z"
}