{
  "contractName": "Custodial",
  "abi": [
    {
      "constant": false,
      "inputs": [
        {
          "name": "amount",
          "type": "uint256"
        }
      ],
      "name": "withdrawFunds",
      "outputs": [],
      "payable": false,
      "stateMutability": "nonpayable",
      "type": "function"
    },
    {
      "constant": true,
      "inputs": [],
      "name": "getFunds",
      "outputs": [
        {
          "name": "",
          "type": "uint256"
        }
      ],
      "payable": false,
      "stateMutability": "view",
      "type": "function"
    },
    {
      "constant": true,
      "inputs": [],
      "name": "_switch",
      "outputs": [
        {
          "name": "",
          "type": "bool"
        }
      ],
      "payable": false,
      "stateMutability": "view",
      "type": "function"
    },
    {
      "constant": false,
      "inputs": [],
      "name": "depositFunds",
      "outputs": [],
      "payable": true,
      "stateMutability": "payable",
      "type": "function"
    },
    {
      "constant": false,
      "inputs": [],
      "name": "CustodialContract",
      "outputs": [],
      "payable": false,
      "stateMutability": "nonpayable",
      "type": "function"
    },
    {
      "anonymous": false,
      "inputs": [
        {
          "indexed": false,
          "name": "_msg",
          "type": "string"
        }
      ],
      "name": "UpdateStatus",
      "type": "event"
    },
    {
      "anonymous": false,
      "inputs": [
        {
          "indexed": false,
          "name": "_msg",
          "type": "string"
        },
        {
          "indexed": false,
          "name": "_user",
          "type": "address"
        },
        {
          "indexed": false,
          "name": "_amount",
          "type": "uint256"
        }
      ],
      "name": "UserStatus",
      "type": "event"
    }
  ],
  "bytecode": "0x60606040526000805460a060020a60ff0219169055341561001f57600080fd5b6103108061002e6000396000f300606060405263ffffffff7c0100000000000000000000000000000000000000000000000000000000600035041663155dd5ee81146100685780634d9b373514610080578063a14a9d3c146100a5578063e2c41dbc146100cc578063e5420da4146100d457600080fd5b341561007357600080fd5b61007e6004356100e7565b005b341561008b57600080fd5b6100936101f0565b60405190815260200160405180910390f35b34156100b057600080fd5b6100b861021b565b604051901515815260200160405180910390f35b61007e61023c565b34156100df57600080fd5b61007e6102ba565b60005433600160a060020a0390811691161461010257600080fd5b600054600160a060020a031681156108fc0282604051600060405180830381858888f19350505050156101ce577ffbf2866ab63740741f358479d82bb93999720f54e4497f1466197a2962e820636040516020808252601a908201527f5573657220686173207472616e73666572726564206d6f6e65790000000000006040808301919091526060909101905180910390a16000805474ff00000000000000000000000000000000000000001916740100000000000000000000000000000000000000001790556101ed565b6000805474ff0000000000000000000000000000000000000000191690555b50565b6000805433600160a060020a0390811691161461020c57600080fd5b50600160a060020a0330163190565b60005474010000000000000000000000000000000000000000900460ff1681565b7ff2582ef5c505d53f90ab4e1cc9882d474eec5d2167acec2d5384b708e3f751523334604051600160a060020a03909216602083015260408083019190915260608083526018908301527f5573657220686173206465706f7369746564206d6f6e65790000000000000000608083015260a0909101905180910390a1565b6000805473ffffffffffffffffffffffffffffffffffffffff191633600160a060020a03161790555600a165627a7a723058206b6b925d4c93f84b4b7af2bacc9648cf114c36329487f0a082597f2e525bbb880029",
  "source": "pragma solidity ^0.4.17;\n\ncontract Custodial {\n    \n    address client;\n    bool public _switch = false;\n    \n    event UpdateStatus(string _msg);\n    event UserStatus(string _msg, address _user, uint _amount);\n    \n    function CustodialContract() {\n        client = msg.sender;\n    }\n    \n    modifier ifClient() {\n        if (msg.sender != client) {\n            revert();\n        }\n        _;\n    }\n    \n    function depositFunds() payable {\n        UserStatus('User has deposited money', msg.sender, msg.value);\n    }\n    \n    function withdrawFunds(uint amount) ifClient {\n        if (client.send(amount)) {\n            UpdateStatus('User has transferred money');\n            _switch = true;\n        } else {\n            _switch = false;\n        }\n    }\n    \n    function getFunds() ifClient view returns (uint) {\n        return this.balance;\n    }\n     \n    \n}",
  "sourcePath": "/Users/albert/ethereum/conference_app/contracts/Custodial.sol",
  "schemaVersion": "1.0.0",
  "updatedAt": "2017-10-29T15:25:10.580Z"
}