{
  "contractName": "HelloWorld",
  "abi": [
    {
      "constant": false,
      "inputs": [
        {
          "name": "_newWord",
          "type": "string"
        }
      ],
      "name": "setWord",
      "outputs": [
        {
          "name": "",
          "type": "string"
        }
      ],
      "payable": false,
      "stateMutability": "nonpayable",
      "type": "function"
    },
    {
      "constant": true,
      "inputs": [],
      "name": "getWord",
      "outputs": [
        {
          "name": "",
          "type": "string"
        }
      ],
      "payable": false,
      "stateMutability": "view",
      "type": "function"
    },
    {
      "inputs": [],
      "payable": false,
      "stateMutability": "nonpayable",
      "type": "constructor"
    }
  ],
  "bytecode": "0x606060405260408051908101604052600b81527f48656c6c6f20576f726c640000000000000000000000000000000000000000006020820152600090805161004b929160200190610077565b50341561005757600080fd5b60018054600160a060020a03191633600160a060020a0316179055610112565b828054600181600116156101000203166002900490600052602060002090601f016020900481019282601f106100b857805160ff19168380011785556100e5565b828001600101855582156100e5579182015b828111156100e55782518255916020019190600101906100ca565b506100f19291506100f5565b5090565b61010f91905b808211156100f157600081556001016100fb565b90565b61031f806101216000396000f300606060405263ffffffff7c0100000000000000000000000000000000000000000000000000000000600035041663cd048de68114610047578063ed40a8c81461010f57600080fd5b341561005257600080fd5b61009860046024813581810190830135806020601f8201819004810201604051908101604052818152929190602084018383808284375094965061012295505050505050565b60405160208082528190810183818151815260200191508051906020019080838360005b838110156100d45780820151838201526020016100bc565b50505050905090810190601f1680156101015780820380516001836020036101000a031916815260200191505b509250505060405180910390f35b341561011a57600080fd5b6100986101a0565b61012a610249565b6001543373ffffffffffffffffffffffffffffffffffffffff90811691161461015257600080fd5b600082805161016592916020019061025b565b5060408051908101604052601381527f74686973206973207468652063726561746f7200000000000000000000000000602082015292915050565b6101a8610249565b60008054600181600116156101000203166002900480601f01602080910402602001604051908101604052809291908181526020018280546001816001161561010002031660029004801561023e5780601f106102135761010080835404028352916020019161023e565b820191906000526020600020905b81548152906001019060200180831161022157829003601f168201915b505050505090505b90565b60206040519081016040526000815290565b828054600181600116156101000203166002900490600052602060002090601f016020900481019282601f1061029c57805160ff19168380011785556102c9565b828001600101855582156102c9579182015b828111156102c95782518255916020019190600101906102ae565b506102d59291506102d9565b5090565b61024691905b808211156102d557600081556001016102df5600a165627a7a72305820b1d8e68dce1e012d8a8a6702c010271f3b918fec824799fa19e77c3e743bf64b0029",
  "source": "pragma solidity ^0.4.17;\n\ncontract HelloWorld {\n    \n    string word = \"Hello World\";\n    address issuer;\n    \n    function HelloWorld() {\n        issuer = msg.sender;\n    }\n    \n    modifier ifIssuer() { //setWord needs to check this modifier first before running\n        if (issuer != msg.sender) {\n            throw;\n        } else {\n            _; //continue with execution of setWord\n        }\n        \n    }\n    \n    function getWord() view returns (string) {\n        return word;\n    }\n    \n    function setWord(string _newWord) ifIssuer returns (string) {\n        word = _newWord;\n        return \"this is the creator\";\n    }\n}\n\n//Ability to get contracts to talk to each other\n\ncontract Caller {\n    Called toBeCalled = Called(0xdf703a49284fe3f547cd1050d91db9436b53898e);\n    \n    function getNumber() view returns (uint) {\n        return toBeCalled.getNumber();\n    }\n    \n    function getWords() view returns (bytes32) {\n        return toBeCalled.getWords();\n    }\n}\n\ncontract Called {\n    uint number = 35;\n    bytes32 words = \"hello my name is bob.\";\n    \n    function getNumber() view returns (uint) {\n        return number;\n    }\n    \n    function setNumber(uint _number) {\n        number = _number;\n    }\n    \n    function getWords() view returns (bytes32) {\n        return words;\n    }\n}\n\n\ncontract ProofOfExistence1 {  \n    bytes32 public proof;\n  \n    function notarize(string document) {\n        proof = proofFor(document);\n    }\n  \n    function proofFor(string document) view returns (bytes32) {\n        return sha256(document);\n    }\n}\n\ncontract ProofOfExistence2 { \n    bytes32[] private proofs;\n\n    function storeProof(bytes32 proof) {\n        proofs.push(proof);\n    }\n\n    function notarize(string _document) {\n        bytes32 proof = proofFor(_document);\n        storeProof(proof);\n    }\n\n    function proofFor(string _document) view returns (bytes32) {\n        return sha256(_document);\n    }\n\n    function checkDocument(string _document) view returns (bool) {\n        bytes32 proof = proofFor(_document);\n        return hasProof(proof);\n    }\n\n    function hasProof(bytes32 _proof) view returns (bool) {\n        for (uint256 i = 0; i < proofs.length; i++) {\n            if (proofs[i] == _proof) {\n                return true;\n            } else {\n                return false;\n            }\n        }\n    }\n}\n\ncontract ProofOfExistence3 { \n    mapping (bytes32 => bool) private proofs;\n\n    function storeProof(bytes32 proof) {\n        proofs[proof] = true;\n    }\n\n    function notarize(string _document) {\n        bytes32 proof = proofFor(_document);\n        storeProof(proof);\n    }\n\n    function proofFor(string _document) view returns (bytes32) {\n        return sha256(_document);\n    }\n\n    function checkDocument(string _document) view returns (bool) {\n        bytes32 proof = proofFor(_document);\n        return hasProof(proof);\n    }\n\n    function hasProof(bytes32 _proof) view returns (bool) {\n        return proofs[_proof];\n    }\n}\n",
  "sourcePath": "/Users/albert/ethereum/conference_app/contracts/HelloWorld.sol",
  "schemaVersion": "1.0.0",
  "updatedAt": "2017-10-29T15:25:10.607Z"
}