{
  "contractName": "ProofOfExistence2",
  "abi": [
    {
      "constant": true,
      "inputs": [
        {
          "name": "_document",
          "type": "string"
        }
      ],
      "name": "checkDocument",
      "outputs": [
        {
          "name": "",
          "type": "bool"
        }
      ],
      "payable": false,
      "stateMutability": "view",
      "type": "function"
    },
    {
      "constant": false,
      "inputs": [
        {
          "name": "_document",
          "type": "string"
        }
      ],
      "name": "notarize",
      "outputs": [],
      "payable": false,
      "stateMutability": "nonpayable",
      "type": "function"
    },
    {
      "constant": false,
      "inputs": [
        {
          "name": "proof",
          "type": "bytes32"
        }
      ],
      "name": "storeProof",
      "outputs": [],
      "payable": false,
      "stateMutability": "nonpayable",
      "type": "function"
    },
    {
      "constant": true,
      "inputs": [
        {
          "name": "_proof",
          "type": "bytes32"
        }
      ],
      "name": "hasProof",
      "outputs": [
        {
          "name": "",
          "type": "bool"
        }
      ],
      "payable": false,
      "stateMutability": "view",
      "type": "function"
    },
    {
      "constant": true,
      "inputs": [
        {
          "name": "_document",
          "type": "string"
        }
      ],
      "name": "proofFor",
      "outputs": [
        {
          "name": "",
          "type": "bytes32"
        }
      ],
      "payable": false,
      "stateMutability": "view",
      "type": "function"
    }
  ],
  "bytecode": "0x6060604052341561000f57600080fd5b61034f8061001e6000396000f300606060405263ffffffff7c010000000000000000000000000000000000000000000000000000000060003504166353fb923381146100685780637183616c146100cd5780638952877b14610120578063e3d1e6d614610136578063f6c1acdf1461014c57600080fd5b341561007357600080fd5b6100b960046024813581810190830135806020601f820181900481020160405190810160405281815292919060208401838380828437509496506101af95505050505050565b604051901515815260200160405180910390f35b34156100d857600080fd5b61011e60046024813581810190830135806020601f820181900481020160405190810160405281815292919060208401838380828437509496506101cf95505050505050565b005b341561012b57600080fd5b61011e6004356101e9565b341561014157600080fd5b6100b960043561020a565b341561015757600080fd5b61019d60046024813581810190830135806020601f8201819004810201604051908101604052818152929190602084018383808284375094965061024c95505050505050565b60405190815260200160405180910390f35b6000806101bb8361024c565b90506101c68161020a565b91505b50919050565b60006101da8261024c565b90506101e5816101e9565b5050565b60008054600181016101fb83826102d9565b50600091825260209091200155565b6000806000548110156101c957600080548491908390811061022857fe5b600091825260209091200154141561024357600191506101c9565b600091506101c9565b60006002826000604051602001526040518082805190602001908083835b602083106102895780518252601f19909201916020918201910161026a565b6001836020036101000a03801982511681845116808217855250505050505090500191505060206040518083038160008661646e5a03f115156102cb57600080fd5b505060405180519392505050565b8154818355818115116102fd576000838152602090206102fd918101908301610302565b505050565b61032091905b8082111561031c5760008155600101610308565b5090565b905600a165627a7a72305820847d63ee378f0832b73ec11d9375c3a61e44029d8e993d013296cd1a8b1c8a710029",
  "source": "pragma solidity ^0.4.17;\n\ncontract HelloWorld {\n    \n    string word = \"Hello World\";\n    address issuer;\n    \n    function HelloWorld() {\n        issuer = msg.sender;\n    }\n    \n    modifier ifIssuer() { //setWord needs to check this modifier first before running\n        if (issuer != msg.sender) {\n            throw;\n        } else {\n            _; //continue with execution of setWord\n        }\n        \n    }\n    \n    function getWord() view returns (string) {\n        return word;\n    }\n    \n    function setWord(string _newWord) ifIssuer returns (string) {\n        word = _newWord;\n        return \"this is the creator\";\n    }\n}\n\n//Ability to get contracts to talk to each other\n\ncontract Caller {\n    Called toBeCalled = Called(0xdf703a49284fe3f547cd1050d91db9436b53898e);\n    \n    function getNumber() view returns (uint) {\n        return toBeCalled.getNumber();\n    }\n    \n    function getWords() view returns (bytes32) {\n        return toBeCalled.getWords();\n    }\n}\n\ncontract Called {\n    uint number = 35;\n    bytes32 words = \"hello my name is bob.\";\n    \n    function getNumber() view returns (uint) {\n        return number;\n    }\n    \n    function setNumber(uint _number) {\n        number = _number;\n    }\n    \n    function getWords() view returns (bytes32) {\n        return words;\n    }\n}\n\n\ncontract ProofOfExistence1 {  \n    bytes32 public proof;\n  \n    function notarize(string document) {\n        proof = proofFor(document);\n    }\n  \n    function proofFor(string document) view returns (bytes32) {\n        return sha256(document);\n    }\n}\n\ncontract ProofOfExistence2 { \n    bytes32[] private proofs;\n\n    function storeProof(bytes32 proof) {\n        proofs.push(proof);\n    }\n\n    function notarize(string _document) {\n        bytes32 proof = proofFor(_document);\n        storeProof(proof);\n    }\n\n    function proofFor(string _document) view returns (bytes32) {\n        return sha256(_document);\n    }\n\n    function checkDocument(string _document) view returns (bool) {\n        bytes32 proof = proofFor(_document);\n        return hasProof(proof);\n    }\n\n    function hasProof(bytes32 _proof) view returns (bool) {\n        for (uint256 i = 0; i < proofs.length; i++) {\n            if (proofs[i] == _proof) {\n                return true;\n            } else {\n                return false;\n            }\n        }\n    }\n}\n\ncontract ProofOfExistence3 { \n    mapping (bytes32 => bool) private proofs;\n\n    function storeProof(bytes32 proof) {\n        proofs[proof] = true;\n    }\n\n    function notarize(string _document) {\n        bytes32 proof = proofFor(_document);\n        storeProof(proof);\n    }\n\n    function proofFor(string _document) view returns (bytes32) {\n        return sha256(_document);\n    }\n\n    function checkDocument(string _document) view returns (bool) {\n        bytes32 proof = proofFor(_document);\n        return hasProof(proof);\n    }\n\n    function hasProof(bytes32 _proof) view returns (bool) {\n        return proofs[_proof];\n    }\n}\n",
  "sourcePath": "/Users/albert/ethereum/conference_app/contracts/HelloWorld.sol",
  "schemaVersion": "1.0.0",
  "updatedAt": "2017-10-29T15:25:10.832Z"
}